{
  "_format": "hh-sol-artifact-1",
  "contractName": "Todos",
  "sourceName": "contracts/Todos.sol",
  "abi": [
    {
      "inputs": [],
      "stateMutability": "nonpayable",
      "type": "constructor"
    },
    {
      "inputs": [
        {
          "internalType": "string",
          "name": "_todo",
          "type": "string"
        }
      ],
      "name": "addToTodos",
      "outputs": [],
      "stateMutability": "nonpayable",
      "type": "function"
    },
    {
      "inputs": [],
      "name": "showTodos",
      "outputs": [
        {
          "components": [
            {
              "internalType": "uint256",
              "name": "id",
              "type": "uint256"
            },
            {
              "internalType": "string",
              "name": "task",
              "type": "string"
            },
            {
              "internalType": "bool",
              "name": "completed",
              "type": "bool"
            }
          ],
          "internalType": "struct Todos.Todo[]",
          "name": "",
          "type": "tuple[]"
        }
      ],
      "stateMutability": "view",
      "type": "function"
    },
    {
      "inputs": [],
      "name": "todoCount",
      "outputs": [
        {
          "internalType": "uint256",
          "name": "",
          "type": "uint256"
        }
      ],
      "stateMutability": "view",
      "type": "function"
    },
    {
      "inputs": [
        {
          "internalType": "uint256",
          "name": "",
          "type": "uint256"
        }
      ],
      "name": "todos",
      "outputs": [
        {
          "internalType": "uint256",
          "name": "id",
          "type": "uint256"
        },
        {
          "internalType": "string",
          "name": "task",
          "type": "string"
        },
        {
          "internalType": "bool",
          "name": "completed",
          "type": "bool"
        }
      ],
      "stateMutability": "view",
      "type": "function"
    },
    {
      "inputs": [
        {
          "internalType": "uint256",
          "name": "_index",
          "type": "uint256"
        }
      ],
      "name": "toogleCompleted",
      "outputs": [],
      "stateMutability": "nonpayable",
      "type": "function"
    },
    {
      "inputs": [
        {
          "internalType": "uint256",
          "name": "_index",
          "type": "uint256"
        },
        {
          "internalType": "string",
          "name": "_todo",
          "type": "string"
        }
      ],
      "name": "updateTodos",
      "outputs": [],
      "stateMutability": "nonpayable",
      "type": "function"
    }
  ],
  "bytecode": "0x608060405234801561001057600080fd5b5060008081905550610dc8806100276000396000f3fe608060405234801561001057600080fd5b50600436106100625760003560e01c8063600060eb1461006757806367e8b7f71461008557806372c2a7b0146100a157806381312810146100bd578063bc8bc2b4146100d9578063fe0dee171461010b575b600080fd5b61006f610129565b60405161007c9190610680565b60405180910390f35b61009f600480360381019061009a9190610817565b61023f565b005b6100bb60048036038101906100b69190610873565b610276565b005b6100d760048036038101906100d29190610900565b6102e9565b005b6100f360048036038101906100ee9190610873565b6103d5565b604051610102939291906109b5565b60405180910390f35b6101136104a4565b60405161012091906109f3565b60405180910390f35b60606001805480602002602001604051908101604052809291908181526020016000905b8282101561023657838290600052602060002090600302016040518060600160405290816000820154815260200160018201805461018a90610a3d565b80601f01602080910402602001604051908101604052809291908181526020018280546101b690610a3d565b80156102035780601f106101d857610100808354040283529160200191610203565b820191906000526020600020905b8154815290600101906020018083116101e657829003601f168201915b505050505081526020016002820160009054906101000a900460ff1615151515815250508152602001906001019061014d565b50505050905090565b806001838154811061025457610253610a6e565b5b906000526020600020906003020160010190816102719190610c49565b505050565b6001818154811061028a57610289610a6e565b5b906000526020600020906003020160020160009054906101000a900460ff1615600182815481106102be576102bd610a6e565b5b906000526020600020906003020160020160006101000a81548160ff02191690831515021790555050565b60016040518060600160405280600054815260200184848080601f016020809104026020016040519081016040528093929190818152602001838380828437600081840152601f19601f8201169050808301925050505050505081526020016000151581525090806001815401808255809150506001900390600052602060002090600302016000909190919091506000820151816000015560208201518160010190816103979190610c49565b5060408201518160020160006101000a81548160ff02191690831515021790555050506000808154809291906103cc90610d4a565b91905055505050565b600181815481106103e557600080fd5b906000526020600020906003020160009150905080600001549080600101805461040e90610a3d565b80601f016020809104026020016040519081016040528092919081815260200182805461043a90610a3d565b80156104875780601f1061045c57610100808354040283529160200191610487565b820191906000526020600020905b81548152906001019060200180831161046a57829003601f168201915b5050505050908060020160009054906101000a900460ff16905083565b60005481565b600081519050919050565b600082825260208201905092915050565b6000819050602082019050919050565b6000819050919050565b6104e9816104d6565b82525050565b600081519050919050565b600082825260208201905092915050565b60005b8381101561052957808201518184015260208101905061050e565b60008484015250505050565b6000601f19601f8301169050919050565b6000610551826104ef565b61055b81856104fa565b935061056b81856020860161050b565b61057481610535565b840191505092915050565b60008115159050919050565b6105948161057f565b82525050565b60006060830160008301516105b260008601826104e0565b50602083015184820360208601526105ca8282610546565b91505060408301516105df604086018261058b565b508091505092915050565b60006105f6838361059a565b905092915050565b6000602082019050919050565b6000610616826104aa565b61062081856104b5565b935083602082028501610632856104c6565b8060005b8581101561066e578484038952815161064f85826105ea565b945061065a836105fe565b925060208a01995050600181019050610636565b50829750879550505050505092915050565b6000602082019050818103600083015261069a818461060b565b905092915050565b6000604051905090565b600080fd5b600080fd5b6106bf816104d6565b81146106ca57600080fd5b50565b6000813590506106dc816106b6565b92915050565b600080fd5b600080fd5b7f4e487b7100000000000000000000000000000000000000000000000000000000600052604160045260246000fd5b61072482610535565b810181811067ffffffffffffffff82111715610743576107426106ec565b5b80604052505050565b60006107566106a2565b9050610762828261071b565b919050565b600067ffffffffffffffff821115610782576107816106ec565b5b61078b82610535565b9050602081019050919050565b82818337600083830152505050565b60006107ba6107b584610767565b61074c565b9050828152602081018484840111156107d6576107d56106e7565b5b6107e1848285610798565b509392505050565b600082601f8301126107fe576107fd6106e2565b5b813561080e8482602086016107a7565b91505092915050565b6000806040838503121561082e5761082d6106ac565b5b600061083c858286016106cd565b925050602083013567ffffffffffffffff81111561085d5761085c6106b1565b5b610869858286016107e9565b9150509250929050565b600060208284031215610889576108886106ac565b5b6000610897848285016106cd565b91505092915050565b600080fd5b600080fd5b60008083601f8401126108c0576108bf6106e2565b5b8235905067ffffffffffffffff8111156108dd576108dc6108a0565b5b6020830191508360018202830111156108f9576108f86108a5565b5b9250929050565b60008060208385031215610917576109166106ac565b5b600083013567ffffffffffffffff811115610935576109346106b1565b5b610941858286016108aa565b92509250509250929050565b610956816104d6565b82525050565b600082825260208201905092915050565b6000610978826104ef565b610982818561095c565b935061099281856020860161050b565b61099b81610535565b840191505092915050565b6109af8161057f565b82525050565b60006060820190506109ca600083018661094d565b81810360208301526109dc818561096d565b90506109eb60408301846109a6565b949350505050565b6000602082019050610a08600083018461094d565b92915050565b7f4e487b7100000000000000000000000000000000000000000000000000000000600052602260045260246000fd5b60006002820490506001821680610a5557607f821691505b602082108103610a6857610a67610a0e565b5b50919050565b7f4e487b7100000000000000000000000000000000000000000000000000000000600052603260045260246000fd5b60008190508160005260206000209050919050565b60006020601f8301049050919050565b600082821b905092915050565b600060088302610aff7fffffffffffffffffffffffffffffffffffffffffffffffffffffffffffffffff82610ac2565b610b098683610ac2565b95508019841693508086168417925050509392505050565b6000819050919050565b6000610b46610b41610b3c846104d6565b610b21565b6104d6565b9050919050565b6000819050919050565b610b6083610b2b565b610b74610b6c82610b4d565b848454610acf565b825550505050565b600090565b610b89610b7c565b610b94818484610b57565b505050565b5b81811015610bb857610bad600082610b81565b600181019050610b9a565b5050565b601f821115610bfd57610bce81610a9d565b610bd784610ab2565b81016020851015610be6578190505b610bfa610bf285610ab2565b830182610b99565b50505b505050565b600082821c905092915050565b6000610c2060001984600802610c02565b1980831691505092915050565b6000610c398383610c0f565b9150826002028217905092915050565b610c52826104ef565b67ffffffffffffffff811115610c6b57610c6a6106ec565b5b610c758254610a3d565b610c80828285610bbc565b600060209050601f831160018114610cb35760008415610ca1578287015190505b610cab8582610c2d565b865550610d13565b601f198416610cc186610a9d565b60005b82811015610ce957848901518255600182019150602085019450602081019050610cc4565b86831015610d065784890151610d02601f891682610c0f565b8355505b6001600288020188555050505b505050505050565b7f4e487b7100000000000000000000000000000000000000000000000000000000600052601160045260246000fd5b6000610d55826104d6565b91507fffffffffffffffffffffffffffffffffffffffffffffffffffffffffffffffff8203610d8757610d86610d1b565b5b60018201905091905056fea2646970667358221220b627877f70d6146869480c2aa8fc781ce6cce3543f8b92f544b923bc34bda69564736f6c63430008110033",
  "linkReferences": {},
  "deployedLinkReferences": {}
}